{
  "contractName": "TP_8",
  "abi": [
    {
      "inputs": [],
      "stateMutability": "nonpayable",
      "type": "constructor"
    },
    {
      "anonymous": false,
      "inputs": [
        {
          "indexed": false,
          "internalType": "string",
          "name": "oldName",
          "type": "string"
        },
        {
          "indexed": false,
          "internalType": "string",
          "name": "newName",
          "type": "string"
        }
      ],
      "name": "NameUpdated",
      "type": "event"
    },
    {
      "inputs": [],
      "name": "getMessage",
      "outputs": [
        {
          "internalType": "string",
          "name": "",
          "type": "string"
        }
      ],
      "stateMutability": "view",
      "type": "function",
      "constant": true
    },
    {
      "inputs": [
        {
          "internalType": "string",
          "name": "newName",
          "type": "string"
        }
      ],
      "name": "setName",
      "outputs": [],
      "stateMutability": "nonpayable",
      "type": "function"
    }
  ],
  "bytecode": "0x60c060405260076080908152662ab735b737bbb760c91b60a0526000906100269082610104565b5034801561003357600080fd5b506040805180820190915260078152662ab735b737bbb760c91b602082015260009061005f9082610104565b506101c3565b634e487b7160e01b600052604160045260246000fd5b600181811c9082168061008f57607f821691505b6020821081036100af57634e487b7160e01b600052602260045260246000fd5b50919050565b601f8211156100ff57600081815260208120601f850160051c810160208610156100dc5750805b601f850160051c820191505b818110156100fb578281556001016100e8565b5050505b505050565b81516001600160401b0381111561011d5761011d610065565b6101318161012b845461007b565b846100b5565b602080601f831160018114610166576000841561014e5750858301515b600019600386901b1c1916600185901b1785556100fb565b600085815260208120601f198616915b8281101561019557888601518255948401946001909101908401610176565b50858210156101b35787850151600019600388901b60f8161c191681555b5050505050600190811b01905550565b6104d1806101d26000396000f3fe608060405234801561001057600080fd5b50600436106100365760003560e01c8063c47f00271461003b578063ce6d41de14610050575b600080fd5b61004e610049366004610187565b61006e565b005b610058610149565b604051610065919061027e565b60405180910390f35b600080805461007c90610298565b80601f01602080910402602001604051908101604052809291908181526020018280546100a890610298565b80156100f55780601f106100ca576101008083540402835291602001916100f5565b820191906000526020600020905b8154815290600101906020018083116100d857829003601f168201915b50505050509050816000908161010b9190610321565b507ff19e969be7affb98a1d812094e0f24ecca36f1eabd6dd592c97020d47c64a00e818360405161013d9291906103e1565b60405180910390a15050565b6060600060405160200161015d919061040f565b604051602081830303815290604052905090565b634e487b7160e01b600052604160045260246000fd5b60006020828403121561019957600080fd5b813567ffffffffffffffff808211156101b157600080fd5b818401915084601f8301126101c557600080fd5b8135818111156101d7576101d7610171565b604051601f8201601f19908116603f011681019083821181831017156101ff576101ff610171565b8160405282815287602084870101111561021857600080fd5b826020860160208301376000928101602001929092525095945050505050565b6000815180845260005b8181101561025e57602081850181015186830182015201610242565b506000602082860101526020601f19601f83011685010191505092915050565b6020815260006102916020830184610238565b9392505050565b600181811c908216806102ac57607f821691505b6020821081036102cc57634e487b7160e01b600052602260045260246000fd5b50919050565b601f82111561031c57600081815260208120601f850160051c810160208610156102f95750805b601f850160051c820191505b8181101561031857828155600101610305565b5050505b505050565b815167ffffffffffffffff81111561033b5761033b610171565b61034f816103498454610298565b846102d2565b602080601f831160018114610384576000841561036c5750858301515b600019600386901b1c1916600185901b178555610318565b600085815260208120601f198616915b828110156103b357888601518255948401946001909101908401610394565b50858210156103d15787850151600019600388901b60f8161c191681555b5050505050600190811b01905550565b6040815260006103f46040830185610238565b82810360208401526104068185610238565b95945050505050565b630243496160e51b8152600060046000845461042a81610298565b60018281168015610442576001811461045b5761048e565b60ff19841688870152821515830288018601945061048e565b8860005260208060002060005b858110156104835781548b82018a0152908401908201610468565b505050858389010194505b509297965050505050505056fea26469706673582212209dc66f374b995547eaa339610a126c538593671130942ccd4470ad08106ea88464736f6c63430008110033",
  "immutableReferences": {},
  "source": "// SPDX-License-Identifier: MIT\r\npragma solidity ^0.8.17;\r\n\r\ncontract TP_8 {\r\n    string private yourName = \"Unknown\";\r\n\r\n    event NameUpdated(string oldName, string newName);\r\n\r\n    constructor() {\r\n        yourName = \"Unknown\";\r\n    }\r\n\r\n    function getMessage() public view returns (string memory) {\r\n        return string(abi.encodePacked(\"Hi, \", yourName));\r\n    }\r\n\r\n    function setName(string memory newName) public {\r\n        string memory oldName = yourName;\r\n        yourName = newName;\r\n        emit NameUpdated(oldName, newName);\r\n    }\r\n}\r\n",
  "sourcePath": "C:\\Users\\user\\Desktop\\LA FAC\\Cours\\blockchain\\TP8\\contracts\\TP_8.sol",
  "compiler": {
    "name": "solc",
    "version": "0.8.17+commit.8df45f5f.Emscripten.clang"
  },
  "schemaVersion": "3.4.16",
  "updatedAt": "2025-12-07T10:37:28.293Z",
  "networkType": "ethereum",
  "devdoc": {
    "kind": "dev",
    "methods": {},
    "version": 1
  },
  "userdoc": {
    "kind": "user",
    "methods": {},
    "version": 1
  }
}